:020000040800F2
:1000000000000220DD3F00080D3300080F33000818
:1000100011330008133300081533000800000000F6
:10002000000000000000000000000000173300087E
:1000300019330008000000001B3300081D330008BE
:100040002D4000082D4000082D4000082D400008DC
:100050002D4000082D4000082D4000082D400008CC
:100060002D4000082D4000082D4000082D400008BC
:100070002D4000082D4000082D4000082D400008AC
:100080002D4000082D4000082D4000082D4000089C
:100090002D4000082D4000082D4000082D4000088C
:1000A0002D4000082D4000082D4000082D4000087C
:1000B0002D4000082D4000082D4000082D4000086C
:1000C0002D4000082D4000082D4000082D4000085C
:1000D0002D4000082D4000082D4000082D4000084C
:1000E0002D4000082D4000082D4000082D4000083C
:1000F0002D4000082D4000082D4000082D4000082C
:100100002D4000082D4000082D4000082D4000081B
:100110002D4000082D4000082D4000082D4000080B
:100120002D4000082D4000082D4000082D400008FB
:100130002D4000082D4000082D4000082D400008EB
:100140002D4000082D4000082D40000829330008EC
:100150002D4000082D4000082D4000082D400008CB
:100160002D4000082D4000082D4000082D400008BB
:100170002D4000082D4000082D4000080000000020
:080180002D4000082D4000088D
:1001880010B5054C237833B9044B13B10448AFF3C9
:1001980000800123237010BDC4010020000000006E
:1001A8002842000808B5034B1BB103490348AFF3C5
:1001B800008008BD00000000C80100202842000897
:1001C80053B94AB9002908BF00281CBF4FF0FF31B6
:1001D8004FF0FF3000F072B9ADF1080C6DE904CEB4
:1001E80000F006F8DDF804E0DDE9022304B070470A
:1001F8002DE9F047089E04468846002B4BD18A42D9
:10020800154667D9B2FA82F24AB1C2F1200701FA5B
:1002180002F320FA07F7954047EA030894404FEAAB
:10022800154E230CB8FBFEF71FFA85FC0EFB17884A
:1002380043EA084307FB0CF1994209D9EB1807F187
:10024800FF3080F01B81994240F21881023F2B4415
:100258005B1AA4B2B3FBFEF00EFB103344EA03446E
:1002680000FB0CFCA44509D92C1900F1FF3380F0E0
:100278000781A44540F2048102382C4440EA074033
:10028800A4EB0C0400271EB1D4400023C6E90043A8
:100298003946BDE8F0878B4209D9002E00F0EB8083
:1002A8000027C6E9000138463946BDE8F087B3FAA9
:1002B80083F7002F47D18B4202D3824200F2FA80A3
:1002C800841A61EB030301209846002EE0D0C6E9AA
:1002D8000048DDE702B9FFDEB2FA82F2002A40F0F8
:1002E8008F80491B4FEA154E1FFA85F80127B1FB8D
:1002F800FEFC230C0EFB1C1143EA014308FB0CF126
:10030800994207D9EB180CF1FF3002D2994200F25A
:10031800CD808446591AA3B2B1FBFEF00EFB10142F
:1003280043EA044408FB00F8A04507D92C1900F15A
:10033800FF3302D2A04500F2B6801846A4EB0804A9
:1003480040EA0C409FE7C7F1200CBB4022FA0CFEA4
:100358004EEA030E01FA07F420FA0CF521FA0CF321
:100368004FEA1E482543B3FBF8F92C0C08FB193358
:100378001FFA8EFA44EA034309FB0AF49C4202FA84
:1003880007F200FA07F10BD91EEB030309F1FF305E
:1003980080F087809C4240F28480A9F1020973446E
:1003A8001B1BADB2B3FBF8F008FB103345EA03445E
:1003B80000FB0AFAA24508D91EEB040400F1FF333A
:1003C8006BD2A24569D90238744440EA0940A0FBBF
:1003D8000289A4EB0A044C45C2464B4654D351D07B
:1003E800002E69D0B1EB0A0564EB030404FA0CFC97
:1003F800FD40FC404CEA0505C6E90054002747E7E4
:10040800C2F1200320FA03F7954001FA02F021FA1D
:1004180003F34FEA154E3843010CB3FBFEF71FFAFE
:1004280085F80EFB173341EA034107FB08F38B42BB
:1004380004FA02F407D9691807F1FF3C2FD28B425E
:100448002DD9023F2944CB1A81B2B3FBFEF00EFB33
:10045800103341EA034100FB08F38B4207D96918BE
:1004680000F1FF3C17D28B4215D902382944C91A2A
:1004780040EA07473BE73746304609E70746E7E6DD
:100488001846FBE64145ABD2B8EB020A69EB0E020F
:1004980001381346A4E76046E9E7184695E767463A
:1004A800D1E781467CE702382C4447E7ACF1020CDF
:1004B8002B442FE7384608E73746E9E6704700BF80
:1004C80030B40468606A29B10D46A36A00EB134092
:1004D80000230CE040EA0240A06212E003F1400170
:1004E80004EB8101496800EB11400133DBB2691E5E
:1004F8008B42F3DB40EA024005F13F0104EB810146
:100508004860002030BC704703685962002070477B
:10051800002302E00133DBB201300278002AF9D16E
:10052800184670474B88012B0BD110B50446C0F80C
:100538000432D0F814329B689847204602F08CFEAB
:1005480010BD70470B7803704B7843708B78CA786E
:1005580003EB022343800B794A7903EB0223838060
:100568008B79CA7903EB0223C380704710B5044620
:10057800802103F062F80021204603F05EF810BDE8
:1005880030B583B004460D464A88130A013B062B52
:1005980000F28180DFE803F00413277F7F63700097
:1005A800D0F810321B680DF10601007C9847BDF8A1
:1005B800062012B1EB88002B71D103B030BD037C4B
:1005C80043B9D0F814329B6A0DF10600984702230C
:1005D8004370ECE7D0F81432DB6A0DF10600984757
:1005E80002234370E3E7D2B2052A34D8DFE802F0E9
:1005F800030B131B232BD0F810325B680DF1060197
:10060800007C9847D3E7D0F810329B680DF10601BB
:10061800007C9847CBE7D0F81032DB680DF1060173
:10062800007C9847C3E7D0F810321B690DF106012A
:10063800007C9847BBE7D0F810325B690DF10601E2
:10064800007C9847B3E7D0F810329B690DF106019A
:10065800007C9847ABE72946FFF788FFADE7037CA6
:1006680033B9D0F814325B6B0DF1060098479EE75A
:100678002946FFF77BFFA0E7037C43B9D0F8143283
:100688001B6B0DF106009847072343708FE7294637
:10069800FFF76CFF91E72946FFF768FF8DE79A425D
:1006A80028BF1A46ADF806200146204602F0A8FDEC
:1006B80083E738B504468B88E3B9CB88D3B98D78FE
:1006C80005F07F0590F8FC31032B0CD080F8FE5123
:1006D800294602F0E5FF204602F0BEFD35B10223AF
:1006E80084F8FC3109E0FFF741FF06E0012384F8B4
:1006F800FC3102E02046FFF739FF38BD38B5044623
:100708000D468978254B1970012909D890F8FC31D4
:10071800022B09D0032B1CD02946FFF727FF02E044
:100728002946FFF723FF38BD81B14160032380F8D4
:10073800FC3100F08CF9022803D0204602F08CFD31
:10074800F1E729462046FFF711FFECE702F084FDA8
:10075800E9E789B1436899421DD0D9B200F084F91C
:100768000E4B19786160204600F071F902280DD00F
:10077800204602F071FDD6E7022380F8FC31416083
:1007880000F072F9204602F067FDCCE729462046C2
:10079800FFF7ECFEC7E702F05FFDC4E7E0010020C9
:1007A80008B5CB88012B08D190F8FC31022B07D073
:1007B800032B0DD0FFF7DAFE01E0FFF7D7FE08BDE7
:1007C8000146002341F8083F012202F019FDF6E72F
:1007D8000122011D02F014FDF1E708B590F8FC3183
:1007E800023B012B0CD80123C360D0F804320BB1B3
:1007F8000323C360022200F10C0102F001FD08BDD1
:10080800FFF7B4FEFBE710B5044690F8FC31023B55
:10081800012B0DD84B88012B09D10023C0F80432D5
:10082800D0F814329B689847204602F015FD10BD99
:10083800FFF79CFEFBE708B54B78092B1CD8DFE8CF
:1008480003F012181B151B09051B0F0CFFF798FE68
:10085800002008BDFFF72DFFFAE7FFF74FFFF7E786
:10086800FFF79EFFF4E7FFF7B8FFF1E7FFF75AFE3F
:10087800EEE7FFF7C8FFEBE7FFF778FEE8E738B5E4
:1008880004460D4690F8FC31032B11D10B79012B4E
:100898000BD8D0F814329B689847EB880BB100202E
:1008A80038BD204602F0D8FCF9E7FFF75FFEF6E70F
:1008B800FFF75CFEF3E738B505460C468A880B78E7
:1008C80003F06003202B05D1D0F814329B689847B9
:1008D800002038BDD1B26378012B25D0002B47D03A
:1008E800032BF5D190F8FC31022B05D0032B0AD04D
:1008F8002146FFF73BFEEBE70029E9D08029E7D046
:1009080002F09BFEE4E7638823B919B1802901D07E
:1009180002F093FED5F814329B6821462846984782
:10092800284602F099FCD3E790F8FC31022B05D059
:10093800032B0AD02146FFF719FEC9E70029C7D0C3
:100948008029C5D002F079FEC2E76388002BBFD1A9
:1009580011F07F0F03D1284602F07EFCB8E702F0C1
:100968007AFED5F814329B68214628469847F2E764
:1009780090F8FC31022B05D0032B09D02146FFF754
:10098800F5FDA5E711F07F0FA2D002F056FE9FE714
:1009980012F0800F11D101F07F04103400EB041421
:1009A8000434284602F065FE70B101232360022258
:1009B8002146284602F024FC8AE701F07F0401342E
:1009C80000EB04140434ECE700232360EFE7D0B114
:1009D80070B50D4616460446FFF79AFD01304000F3
:1009E80080B23080287003236B70022307E0013443
:1009F8005A1CD2B2E9540233DBB20021A95421783F
:100A08000029F4D170BD704798B108B50346D0F8F5
:100A1800140210B10020C3F8140209B1C3F810126F
:100A28001846012380F8FC31027002F09FFD002077
:100A380008BD0220704719B1C0F814120020704791
:100A48000220704708B502F0CBFD002008BD08B5AC
:100A5800D0F8143233B11B68984708B9002008BD94
:100A68000220FCE70220FAE708B5D0F814325B68E8
:100A78009847002008BD38B5044600F50275284699
:100A8800FFF760FD0123C4F8F431B4F80E32C4F85E
:100A9800F83194F8081201F01F03012B0ED03BB176
:100AA800022B10D001F08001204602F0C6FD03E0C1
:100AB80029462046FFF7BFFE002038BD29462046BC
:100AC800FFF7DDFEF8E729462046FFF7F4FEF3E7D7
:100AD80010B5044621BB1346D0F8F421032A01D0EF
:100AE800002010BDD0F80C11D0F8102191420CD87C
:100AF800D0F814321B6923B190F8FC21032A00D1E5
:100B08009847204602F0A8FBEAE7891AC0F80C11BA
:100B18008A4228BF0A4692B2194602F095FBDFE7DF
:100B28000A46D0F814329B69002BD9D090F8FC11F2
:100B38000329D5D111469847D2E710B504460029B4
:100B480046D11346D0F8F421022A05D094F8003291
:100B5800012B39D0002010BDC169026A914219D811
:100B68008169B1FBF2F302FB13132BB98A4203D854
:100B7800D0F8F83199421AD3D4F81432DB682BB183
:100B880094F8FC21032A01D120469847204602F018
:100B98006EFBDBE78A1AC26192B2194602F03DFB8E
:100BA80000231A461946204602F096FDCEE7002299
:100BB800114602F032FB0021C4F8F8110B460A4630
:100BC800204602F089FDC1E7002384F80032C1E71E
:100BD8000A46D0F814325B69002BBBD090F8FC11A0
:100BE8000329B7D111469847B4E738B504464023DE
:100BF8000022114602F002FD4025C4F810512B4690
:100C080000228021204602F0F9FC2562012384F8A5
:100C1800FC31D4F818322BB1D4F814325B6821793E
:100C280020469847002038BD01740020704790F88E
:100C3800FC3180F8FD31042380F8FC310020704736
:100C480090F8FD3180F8FC310020704708B590F825
:100C5800FC31032B01D0002008BDD0F81432DB6929
:100C6800002BF8D09847F6E700207047002070471F
:100C78000020704708B5012280F8FC21D0F8142222
:100C8800526801799047002008BD000070B4036ADB
:100C980023F001030362036A4268846924F0730441
:100CA8000D6845EA040623F002048B6823430C4DC3
:100CB800A84202D00B4CA0420BD123F00803CD6808
:100CC8002B4323F0040322F440724D6915438A69CB
:100CD8002A43426086614A684263036270BC704777
:100CE800000001400004014030B4036A23F480731B
:100CF8000362036A4268C46924F073040D682C43D4
:100D080023F400738D6843EA05230E4DA84203D0EF
:100D180005F58065A8420ED123F40063CD6843EA47
:100D2800052323F4806322F440524D6942EA0512F8
:100D38008D6942EA05124260C4614A68C26303626F
:100D480030BC70470000014030B4036A23F480537C
:100D58000362036A4468C26922F4E6420D6842EA03
:100D6800052223F400538D6843EA0533094DA84250
:100D780003D005F58065A84204D124F480444D6968
:100D880044EA85144460C2614A680264036230BC64
:100D9800704700BF0000014003682E4A904212D0FD
:100DA800B0F1804F0FD0A2F57C4290420BD002F5F3
:100DB8008062904207D002F58062904203D002F52B
:100DC8007842904203D123F070034A681343214AC2
:100DD80090422AD0B0F1804F27D0A2F57C429042B1
:100DE80023D002F5806290421FD002F580629042C3
:100DF8001BD002F57842904217D002F5705290420B
:100E080013D002F5806290420FD002F580629042C2
:100E18000BD0A2F59832904207D002F5806290423A
:100E280003D002F58062904203D123F44073CA686C
:100E3800134303608B68C3620B688362054B984257
:100E480003D003F58063984201D10B690363012342
:100E58004361704700000140A8B110B5044690F8FE
:100E680039305BB1022384F83930211D2068FFF73F
:100E780093FF012384F83930002010BD80F8383002
:100E880002F0FCF8EEE701207047000070B4046A35
:100E980024F0010404628469056A1A4EB0421FD026
:100EA800B0F1804F1CD0A6F57C46B04218D006F5AC
:100EB8008066B04214D006F58066B04210D006F5C0
:100EC8007846B0420CD006F57056B04208D0A6F568
:100ED8009436B04204D024F0030242F0010202E04A
:100EE80024F00304224322F0F0021B01DBB2134377
:100EF80025F00A0201F00A0111438361016270BC06
:100F0800704700BF0000014030B4036A23F01003AB
:100F18000362036A4468826922F4E6420D6842EA81
:100F2800052223F020038D6843EA05130E4DA842DD
:100F380003D005F58065A8420ED123F08003CD6863
:100F480043EA051323F0400324F440644D6944EA5E
:100F580085048D6944EA8504446082614A68826335
:100F6800036230BC704700BF0000014090F8383081
:100F7800012B28D010B50446012380F8383002230D
:100F880080F839300C2A0BD8DFE802F0070A0A0A81
:100F9800110A0A0A150A0A0A19000068FFF776FEFC
:100FA800012384F83930002084F8380010BD006827
:100FB800FFF7AAFFF4E70068FFF796FEF0E700687E
:100FC800FFF7C2FEECE70220704700000F49D1F896
:100FD800883043F47003C1F888300D4B1A6842F02A
:100FE80001021A60002098601A6822F0847222F4C4
:100FF80080321A60074A5A601A6822F480221A60FE
:10100800D8604FF000638B60704700BF00ED00E0D0
:10101800003802401030002410B5094C002209495C
:101028002046FFF7F1FC08492046FFF704FD074971
:10103800204602F055FC2046FFF704FD10BD00BF16
:10104800F00100202C0100201C00002004000020DA
:10105800002070470020704710B5054C0146204617
:1010680002F04DFC204602F050FC002010BD00BFED
:10107800F001002010B5064C00220649204602F077
:1010880036FC0549204602F03AFC002010BD00BF9E
:10109800F0010020140C00201404002000230F2B62
:1010A80000F2D780F0B482B039E0072200E00022D5
:1010B800B2403A430234674E46F82420664A146820
:1010C800EA4302EA04064F6817F4803F01D045EA74
:1010D8000406614C2660646802EA04064F6817F447
:1010E800003F01D045EA04065B4C6660A46802EA4A
:1010F80004064F6817F4801F01D045EA0406564CD1
:10110800A660E46822404E6816F4001F01D045EA44
:101118000402514CE26001330F2B00F29780012248
:101128009A400C6804EA0205AA42F4D14C68022CE1
:1011380001D0122C10D1DE08083650F826C003F072
:101148000704A7000F24BC402CEA040C0C69BC401F
:1011580044EA0C0440F8264004685F000326BE40B9
:10116800F64306EA040C4C6804F00304BC4044EA65
:101178000C0404604C6804F1FF3CBCF1010F03D976
:10118800112C01D0122C10D1846806EA040CCC680A
:10119800BC4044EA0C048460446824EA02024C68B7
:1011A800C4F300149C4014434460C26816408A6823
:1011B800BA403243C2604A6812F0805FABD0002266
:1011C8000192264A546C44F480445464526C02F4EC
:1011D80080420192019A9C08A61C1E4A52F8267069
:1011E80003F0030296000F22B24027EA02071C4AC6
:1011F80090423FF45CAF02F5806290421AD002F54B
:101208008062904218D002F58062904216D002F5B2
:101218008062904214D002F58062904212D002F5AA
:101228008062904210D002F5806290423FF43DAF58
:1012380008223DE701223BE7022239E7032237E78C
:10124800042235E7052233E7062231E702B0F0BC75
:101258007047704700380140003C014000380240A8
:101268000000024012B9090481617047816170472A
:10127800436959404161704784B010B5044603A8DA
:1012880080E80E00089B012B20D1A36B23F4803348
:10129800A363E36823F4840323F04003E360E36873
:1012A80023F44013E3600F9B012B0AD0204600F083
:1012B80005FD069B012B14D00020BDE8104004B0AA
:1012C8007047E36843F48013E360EFE7E36843F0B3
:1012D8004003E360204600F0F1FC4FF48033A36341
:1012E800E7E7A36843F00603A360A36843F020037D
:1012F800A360E1E7836843F001038360002070473F
:10130800836823F0010383600020704708B5C36831
:1013180023F0C043C360012909D019B9C36843F059
:101328008043C360322001F057FF002008BDC36826
:1013380043F00053C360F5E784B0F8B5044607A846
:1013480080E80E00119FBFB9A36B43F40013A36399
:1013580025460023C4F8003E04F50066D4F800389A
:10136800C4F800380C9B012B10D1099B4BB9002104
:10137800204600F0AFF80DE0A36B43F40023A3630D
:10138800E6E70121204600F0A5F803E00321204606
:1013980000F0A0F81021204600F076F8204600F072
:1013A80087F80023336173614FF0FF32B261F36154
:1013B80008E04FF09040C2F8000900220A61FF22BD
:1013C8008A600133079999420BD905EB431202F55C
:1013D8001061D2F800090028EBDB0020C2F80009F0
:1013E800EBE7002308E04FF0904CC2F800CB002256
:1013F8000261FF228260013399420DD905EB431245
:1014080002F53060D2F800CBBCF1000FEBDB4FF0F7
:10141800000CC2F800CBEAE7336923F48073336128
:101428000A9B012B1AD00022A2616FF080426261F0
:101438001BB9A36943F01003A361A269104B1343BE
:10144800A3610D9B1BB1A36943F00803A361012F9E
:101458000ED00020BDE8F84004B07047094A326356
:10146800326B42F4803242F003023263326BDAE7C5
:10147800A36943F0804343F00403A361E9E700BF95
:1014880000383C8000018000890141F020010161A1
:1014980000230133054A934205D8026912F0200F50
:1014A800F7D1002070470320704700BF400D0300AC
:1014B8001023036100230133054A934205D80269CA
:1014C80012F0100FF7D1002070470320704700BFBB
:1014D800400D0300D0F800381943C0F80018002068
:1014E8007047D0F8083800F5006013F0060F10D0E8
:1014F800836803F00603022B0DD0836803F006030C
:10150800062B0AD0836803F00603042B07D00020BB
:10151800704700207047032070470320704702205F
:10152800704730B44B78012B22D0D0F81C380D7896
:101538000122AA4043EA0243C0F81C380B7800EBAA
:101548004310D0F8003B13F4004F0ED1D0F8003B05
:101558008A68C2F30A02C97842EA8142134343F017
:10156800805343F40043C0F8003B002030BC704770
:10157800D0F81C280D78AB409BB21343C0F81C3838
:101588000C7800EB4410D0F8003913F4004FECD17C
:10159800D0F800398A68C2F30A02C97842EA81425F
:1015A80042EA8452134343F0805343F40043C0F8A3
:1015B8000039DAE738B54B78012B36D00B7804467A
:1015C80000EB4313D3F8002B22F40042C3F8002B9E
:1015D8000B7800EB43134FF00062C3F8002B0B7835
:1015E80000EB43134FF08042C3F8002B0022013276
:1015F8002B4B9A4252D80B7804EB431303F5306314
:101608009B6813F0100FF2D1D0F8043843F48063CC
:10161800C0F80438D0F81C38097801228A4023EA37
:101628000243C0F81C38002038BD0B78044600EB94
:101638004313D3F8002922F40042C3F800290B7899
:1016480000EB43134FF00062C3F800290B7800EB5E
:1016580043134FF08042C3F8002900220132104B97
:101668009A4219D80B7804EB431303F510639B686F
:1016780013F0804FF2D10D4604461021FFF704FF06
:10168800D4F81C28297801238B409BB222EA030353
:10169800C4F81C380020C7E70320C5E70320C3E7C8
:1016A800400D030070B582B04B78012B3ED00B780B
:1016B80000EB4313D3F8104BE40CE404C3F8104BCD
:1016C8000B7800EB4313D3F8104B24F0FF5424F4A9
:1016D800C014C3F8104B4B69002B40F0D4800B7832
:1016E80000EB4313D3F8104B8D68C5F312052C4358
:1016F800C3F8104B0B7800EB4313D3F8104B44F4AA
:101708000024C3F8104B012A00F0DC80CB78012BB1
:1017180000F0DF800B7800EB4310D0F8003B43F07B
:101728000443C0F8003B002002B070BD4B696BBB9E
:101738000B7800EB4313D3F8104924F0FF5424F43A
:10174800C014C3F810490B7800EB4313D3F81049C1
:1017580044F40024C3F810490B7800EB4313D3F882
:101768001049E40CE404C3F81049012A54D0CB789A
:10177800012B57D04B69002B54D0D0F834380E7851
:101788000124B4402343C0F834384BE00B7800EB15
:101798004313D3F81049E40CE404C3F810490B7858
:1017A80000EB4313D3F8104924F0FF5424F4C01479
:1017B800C3F810490C7800EB4414D4F810594B695D
:1017C8008E683344013BB3FBF6F34E4E06EAC3433F
:1017D8002B43C4F810390B7800EB4313D3F81049A6
:1017E8004D69C5F312052C43C3F81049CB78012B7A
:1017F800BBD10B7800EB4313D3F8104924F0C04455
:10180800C3F810490B7800EB4313D3F8104944F0A0
:101818000054C3F81049A8E70B7800EB43130C6990
:10182800C3F81449CB78012B14D00B7800EB431381
:10183800D3F8004944F00444C3F80049CB78012B9D
:101848007FF471AF14468B8A0A78C968009400F057
:101858000BF968E7D0F8083813F4807F09D10B78C2
:1018680000EB4313D3F8004944F00054C3F800498F
:10187800DBE70B7800EB4313D3F8004944F08054BE
:10188800C3F80049D1E78C682344013BB3FBF4F368
:101898000C7800EB4414D4F8105B1A4E06EAC346E1
:1018A8003543C4F8105B0C7800EB4414D4F8106B83
:1018B8008D689BB205FB03F5C5F312053543C4F8E3
:1018C800105B20E7CA680B7800EB4313C3F8142BAE
:1018D8001CE7D0F8083813F4807F09D10B7800EBA7
:1018E8004313D3F8002B42F00052C3F8002B11E742
:1018F8000B7800EB4313D3F8002B42F08052C3F867
:10190800002B07E70000F81F30B44B78012B39D0C3
:101918000B7800EB4313D3F8104BE40CE404C3F842
:10192800104B0B7800EB4313D3F8104B24F0FF5403
:1019380024F4C014C3F8104B4B690BB18B684B618E
:101948000B7800EB4313D3F8104B44F40024C3F88E
:10195800104B0B7800EB4313D3F8104B8D68C5F38D
:1019680012052C43C3F8104B012A76D00B7800EBF4
:101978004310D0F8003B43F00443C0F8003B00207C
:1019880030BC70474B699BBB0B7800EB4313D3F813
:10199800104924F0FF5424F4C014C3F810490B78FC
:1019A80000EB4313D3F8104944F40024C3F810495A
:1019B8000B7800EB4313D3F81049E40CE404C3F8A4
:1019C80010490B7800EB4313D3F8004944F0044462
:1019D800C3F80049012A39D04B69002BCFD0D0F881
:1019E8003438097801228A401343C0F83438C6E7EE
:1019F8000B7800EB4313D3F81049E40CE404C3F864
:101A080010490B7800EB4313D3F8104924F0FF5426
:101A180024F4C014C3F810494C698B689C4200D95F
:101A28004B610B7800EB4313D3F8104944F40024BE
:101A3800C3F810490B7800EB4313D3F810494D69EC
:101A4800C5F312052C43C3F81049BAE70B7800EB2D
:101A580043100B69C0F8143991E7CA680B7800EB9A
:101A68004313C3F8142B81E770B49DF80C4064B994
:101A780003339D0807E000EB023303F5805351F868
:101A8800046B1E600134AC42F5D3002070BC704773
:101A980003329208002393420CD210B400F580540C
:101AA800246841F8044B01339342F7D308465DF8A4
:101AB800044B7047084670474B78012B17D00B78BA
:101AC80000EB4313D3F8002B002A05DBD3F8002BD7
:101AD80022F08042C3F8002B0B7800EB4310D0F8BB
:101AE800003B43F40013C0F8003B002070470B781C
:101AF80000EB4313D3F80029002A05DBD3F80029AB
:101B080022F08042C3F800290B7800EB4310D0F88C
:101B1800003943F40013C0F80039E6E74B78012B8D
:101B28000FD00B7800EB4313D3F8002B22F40012EC
:101B3800C3F8002BCB78023BDBB2012B19D900206C
:101B480070470B7800EB4313D3F8002922F40012F6
:101B5800C3F80029CB78023BDBB2012BEFD80B7816
:101B680000EB4310D0F8003943F08053C0F8003937
:101B7800E5E70B7800EB4310D0F8003B43F08053C7
:101B8800C0F8003BDBE7D0F8003823F4FE63C0F868
:101B98000038D0F80038090101F4FE610B43C0F8A1
:101BA80000380020704708B5D0F8043823F0020345
:101BB800C0F80438032001F00FFB002008BD08B569
:101BC800D0F8043843F00203C0F80438032001F0C9
:101BD80003FB002008BD4269806910407047D0F8B7
:101BE800183800F50060C0691840000C7047D0F83C
:101BF800183800F50060C069184080B2704700EBE3
:101C08004111D1F8082B00F5006040691040704779
:101C180010B4D0F81048D0F83438CB40DB01DBB230
:101C2800234300EB411000F51060806818405DF810
:101C3800044B7047406900F001007047D0F8003944
:101C480023F4FF6323F00703C0F8003900F50063AD
:101C58009A6802F00602042A05D05A6842F4807293
:101C68005A6000207047D0F8002942F00302C0F8FB
:101C78000029F2E710B40024C0F8104BD0F8104B3C
:101C880044F40024C0F8104BD0F8104B44F018046A
:101C9800C0F8104BD0F8104B44F0C044C0F8104BBB
:101CA800012903D000205DF8044B7047C0F8142BBD
:101CB8004FF08023C0F8003BF4E700000023013315
:101CC8000C4A934211D80269002AF8DA036943F0F2
:101CD8000103036100230133064A934207D80269CE
:101CE80012F0010FF7D1002070470320704703203E
:101CF800704700BF400D03002DE9F04383B007464D
:101D08000D46D0F80080CA00521A93000344DE6CD6
:101D18001A6DB61A1B6C9E4200D91E4606F10309BD
:101D28004FEA990915E006F103094FEA9909EB0012
:101D38005B1B9C003C44616C3B7C0093B3B2EAB2F1
:101D48004046FFF791FE636C33446364236D33446C
:101D58002365414608EB451303F510639B699BB265
:101D68004B4512D9EA00521B93003B441A6DDB6CB9
:101D78009A420AD24BB19E1AC5EBC50293003B4466
:101D88001B6C9E42CFD91E46CDE73EB90123AB401E
:101D9800D1F8345825EA0305C1F83458002003B0B7
:101DA800BDE8F08300286BD0F0B58BB00446032360
:101DB80080F8B93301F03AFB2068FFF7A1FA25460D
:101DC80055F8107B6E460FCD0FC60FCD0FC695E8A0
:101DD800030086E80300231D0ECB3846FFF74CFAB4
:101DE80000212068FFF792FA002210E0D100891A3A
:101DF8008B002344012183F8391083F83820DA87CF
:101E0800002183F83B1019645964D96401320E2A01
:101E1800ECD9002218E0D100891A8B002344002154
:101E280083F8F91183F8F821DA8783F8FB11C3F8EE
:101E38000012C3F80412C3F80C12236802F1400020
:101E480003EB8003596001320E2AE4D9254655F880
:101E5800107B6E460FCD0FC60FCD0FC695E8030059
:101E680086E80300231D0ECB3846FFF765FA0123E9
:101E780084F8B9332068FFF7A2FE00200BB0F0BD4C
:101E88000120704790F8B833012B0ED010B50446E6
:101E9800012380F8B8330068FFF785FE2068FFF754
:101EA80029FA002084F8B80310BD0220704700000A
:101EB8002DE9F047044605682846FFF7BBFE08B140
:101EC800BDE8F08706462068FFF785FE0028F7D0B2
:101ED8002068FFF780FE10F0020F04D022685369D3
:101EE80003F0020353612068FFF775FE10F4002F1A
:101EF80075D137462068FFF76EFE10F4802F40F04A
:101F0800D2802068FFF767FE0028C0F23E81206873
:101F1800FFF761FE10F4006F0AD0D5F8083813F007
:101F2800010F40F041812268536903F40063536153
:101F38002068FFF750FE10F4805F40F03981206878
:101F4800FFF749FE10F4005F40F082812068FFF738
:101F580042FE10F0100F14D02268936923F010038A
:101F680093612E6A06F00F08C6F34343022B00F074
:101F78000382062B00F021822268936943F0100344
:101F880093612068FFF727FE10F0080F40F02982C0
:101F98002068FFF720FE10F4801F40F02B82206895
:101FA800FFF719FE10F4001F40F02E822068FFF79B
:101FB80012FE10F0804F40F031822068FFF70BFED0
:101FC80010F0040F3FF47CAF23685D6815F0040F30
:101FD80040F02D82226853682B43536070E72068D5
:101FE800FFF7FDFD8046374621E0F900C91B8A004E
:101FF8002244D2F800121B69C3F31203C91AC2F8AB
:102008001012D2F80012D2F804320B44C2F804328B
:1020180028E019F0080F3DD119F0100F04D005EB96
:1020280047131022C3F8082B01374FEA5808B8F1B4
:10203800000F3FF45FAF18F0010FF5D05FFA87FA91
:1020480051462068FFF7DBFD814610F0010FE0D014
:1020580005EB47130122C3F8082B03F53063226907
:10206800012AC2D05146204601F01CFA2369012BEF
:10207800CFD1002FCDD1C7EBC70293002344D3F8AB
:102088000C32002BC5D104F56F7201212068FFF7CF
:10209800F1FDBEE7204601F0FDF905EB47130822E4
:1020A800C3F8082BB8E72068FFF7A1FD804637463C
:1020B8002EE0FA00D21B93002344196C5A6C0A4490
:1020C8005A6446E019F0080F04D005EB47130822BC
:1020D800C3F8082919F0100F04D005EB4713102294
:1020E800C3F8082919F0400F04D005EB4713402224
:1020F800C3F8082919F0020F04D005EB4713022290
:10210800C3F8082919F0800F3AD101374FEA580867
:10211800B8F1000F3FF4F5AE18F0010FF5D05FFAF3
:1021280087FA51462068FFF773FD814610F0010FCA
:10213800C8D0012202FA07F0D5F8343823EA0003A0
:10214800C5F8343805EB4713C3F8082923699342C7
:10215800AFD05146204601F0B1F92369012BB1D126
:10216800002FAFD1C7EBC70293002344DB6C002BD1
:10217800A8D104F56F7201212068FFF77BFDA1E764
:1021880039462046FFF7B8FDBFE7D5F8043823F0F5
:102198000103C5F80438204601F0CAF922685369DA
:1021A80003F000435361B2E6204601F0A9F9BAE60C
:1021B800A94605F50068D8F8043023F00103C8F8EB
:1021C800043010212068FFF75FF907E009EB461398
:1021D800FF22C3F80829C3F8082B01366368B34205
:1021E800F4D84FF0FF33C8F81830D8F81C3043F053
:1021F8000113C8F81C30236BEBB1D8F8843043F0D6
:102208000B03C8F88430D8F8443043F00B03C8F8FF
:102218004430D5F8003823F4FE63C5F8003804F5D7
:102228006F72217C2068FFF725FD2268536903F44B
:102238008053536183E6D8F8143043F00B03C8F891
:102248001430D8F8103043F00B03C8F81030E0E72A
:102258002068FFF7F3FC2268D36823F47053D36037
:102268002068FFF73EF990B90023E3604FF400734C
:1022780063612268D36843F41053D360204601F0A9
:102288002EF92268536903F4005353615EE6032371
:10229800E3604023636101F097FE674B0344674A9C
:1022A800934205D82268D36843F47053D360E5E7B6
:1022B800634B0344634A934205D82268D36843F4C6
:1022C8006053D360DAE7A0F57403A3F510535E4AB0
:1022D800934205D82268D36843F45053D360CDE7BE
:1022E800A0F18373A3F5E743584A934205D82268BF
:1022F800D36843F44053D360C0E7554B0344554A71
:10230800934205D82268D36843F43053D360B5E7C5
:10231800514B0344514A934205D82268D36843F489
:102328002053D360AAE74E4B03444E4A934205D844
:102338002268D36843F41053D3609FE7A0F1B773C2
:10234800A3F55853484A934205D82268D36843F402
:102358000053D36092E7454B0344454A934205D85E
:102368002268D36843F4E053D36087E72268D368D0
:1023780043F4C053D36081E747F6F0731E423FF43D
:10238800FBAD36094FEAC80AAAEB08034FEA8309EE
:10239800A144C6F30A02D9F804122846FFF778FBCD
:1023A800C6F30A06D9F804323344C9F80432D9F816
:1023B80010321E44C9F81062DEE5082204F56F7178
:1023C8002846FFF765FBC6F30A164FEAC803A3EBD6
:1023D80008018A002244D2F810321E44C2F8106262
:1023E800CAE5204601F075F82268536903F008032E
:1023F8005361CDE5F9B2204601F0A6F82268536989
:1024080003F480135361CAE5F9B2204601F096F847
:102418002268536903F400135361C7E5204601F0AD
:1024280099F82268536903F080435361C5E5204653
:1024380001F096F8CEE500BF405327FFFF340C00AB
:10244800401E1BFF3F420F007F4F12001FD6130094
:1024580060B6E5FE5FE3160000D3CEFE3F771B00B3
:10246800C05BB3FEBF9121001F753800E05459FED0
:10247800DF9C410090F8B833012B0BD010B504460F
:10248800012380F8B8330068FFF77DFB002084F84B
:10249800B80310BD0220704770B54DB2002D22DB85
:1024A80001F07F06C6EBC606B40004F5FC740444CC
:1024B80001F07F012170ED0F6570A260E37005B136
:1024C800E180022B17D090F8B833012B16D00546BF
:1024D800012380F8B83321460068FFF722F800206E
:1024E80085F8B80370BD01F07F06C6EBC606B400D8
:1024F80038340444DCE700232371E4E70220F1E7E1
:1025080010B54AB2002A1CDB01F07F04C4EBC404F6
:10251800A30003F5FC73034401F07F011970D20F87
:102528005A7090F8B823012A13D00446012280F883
:10253800B82319460068FFF73DF8002084F8B8036F
:1025480010BD01F07F04C4EBC404A3003833034476
:10255800E2E70220F4E770B501F07F06F500A91B59
:102568008C0004F5FC740119AD1BAC000444C4F8DC
:102578000422C4F80C320023C4F8103284F8F9316C
:1025880084F8F8610369012B06D066B1DAB20068F5
:10259800FFF788F8002070BDC6EBC605AC00044400
:1025A800C4F80822F1E7DAB20068FFF7ADF9F1E7FD
:1025B80001F00F01C1EBC1018B001844B0F8100203
:1025C800704770B501F07F06F500A91B8C00383400
:1025D8000119AD1BAC0004446264E3640023236565
:1025E800012384F8393084F838600369012B06D058
:1025F8005EB1DAB20068FFF755F8002070BDC6EB8F
:10260800C605AC000444A264F2E7DAB20068FFF73A
:102618007BF9F2E738B54AB2002A1DDBC1EBC104E9
:10262800A30003F5FC73034401249C7001F07F04AC
:102638001C70D20F5A7090F8B823012A1BD0054697
:10264800012280F8B82319460068FFF735FA5CB113
:10265800002085F8B80338BD01F07F04C4EBC4043A
:10266800A30038330344DFE705F56F72297C286837
:10267800FFF700FBECE70220EDE710B54AB2002AAD
:102688001CDBC1EBC104A30003F5FC730344002465
:102698009C7001F07F011970D20F5A7090F8B8231E
:1026A800012A13D00446012280F8B823194600688D
:1026B800FFF734FA002084F8B80310BD01F07F0456
:1026C800C4EBC404A30038330344E0E70220F4E772
:1026D800494B5A6822F440325A605A6841680A43A2
:1026E8005A600268536823F4807353600268536821
:1026F800016943EA012353600268536823F0407379
:1027080053600268536881680B435360026893689A
:1027180023F40063936002689368C1680B43936075
:10272800826A364B9A4249D00268936823F07063F4
:10273800936002689368816A0B43936002689368A8
:1027480023F04053936002689368C16A0B43936017
:102758000268936823F002039360026893688169B2
:1027680043EA41039360036A002B32D1026853683D
:1027780023F4006353600268D36A23F47003D362BE
:102788000168CB6AC269013A43EA0253CB62026824
:10279800936823F40073936002689368016B43EABB
:1027A800412393600268936823F48063936002680E
:1027B8009368416943EA812393607047026893688C
:1027C80023F0706393600268936823F0405393602A
:1027D800BEE70268536843F40063536002685368B5
:1027E80023F46043536001684B68426A013A43EA44
:1027F80042334B60BFE700BF002301400100000FD8
:1028080030B310B50446036C43B1236C13F0100FBA
:102818000AD00120002384F83C3010BD436480F8BE
:102828003C3000F0CBFBF0E7236C23F4885323F013
:10283800020343F0020323642046FFF749FF002008
:102848006064236C23F0030343F001032364E1E78E
:102858000120704730B482B00023019390F83C30D7
:10286800012B00F0B780012380F83C300B68092B5E
:102878003ED90568EA689BB203EB43031E3B072475
:1028880004FA03F322EA0303EB600568EA688C683C
:102898000B8803EB43031E3B04FA03F31343EB607B
:1028A8004B68062B3AD805686A6B03EB8303053B34
:1028B8001F2404FA03F322EA03036B6305686A6BB7
:1028C8004B6803EB8303053B0C8804FA03F31343BB
:1028D8006B630268404B9A4250D002683E4B9A4262
:1028E80055D0002380F83C30184602B030BC704701
:1028F80005682A699BB203EB4303072404FA03F330
:1029080022EA03032B6105682A698C680B8803EBAC
:10291800430304FA03F313432B61C1E70C2B16D8C6
:1029280005682A6B03EB8303233B1F2404FA03F394
:1029380022EA03032B6305682A6B4B6803EB8303C6
:10294800233B0C8804FA03F313432B63C1E70568A0
:10295800EA6A03EB8303413B1F2404FA03F322EAE8
:102968000303EB620568EA6A4B6803EB8303413BA8
:102978000C8804FA03F31343EB62AAE70B68122BE3
:10298800ABD1164A536843F480035360A5E70B683C
:10299800103B012BA5D8114A536843F40003536038
:1029A8000B68102B9DD10E4B1B6802F1467202F585
:1029B8002E3202F28332A2FB03239B0C03EB830328
:1029C8005A00019202E0019B013B0193019B002BFD
:1029D800F9D186E7022088E7002001400023014062
:1029E8000000002070B58CB0002401943D4B1A6B98
:1029F80042F010021A631A6B02F010020192019A57
:102A080002941A6B42F004021A631A6B02F0040271
:102A18000292029A03941A6B42F080021A631A6BAC
:102A280002F080020392039A04941A6B42F00102A6
:102A38001A631A6B02F001020492049A05941A6B45
:102A480042F002021A631A6B02F002020592059A1A
:102A580006941A6B42F008021A631B6B03F0080312
:102A68000693069B204E22464FF47F413046FEF7E0
:102A7800F9FB0B23079303250895099407A91B481D
:102A8800FEF70CFB41F2194307930895099407A92F
:102A98001748FEF703FB40F2F123079308950994C2
:102AA80007A91448FEF7FAFA40F244630793089519
:102AB800099407A91048FEF7F1FA4FF47F430793EA
:102AC8000123089309940A9407A93046FEF7E6FA09
:102AD800302307930895099407A93046FEF7DEFAD4
:102AE8000CB070BD00380240000C024000100240DB
:102AF800000802400000024000040240FEE7000017
:102B080000B591B03048314B0360002343608360C7
:102B1800C36003614361FEF79FF9002836D10023A3
:102B28000E930F930EA9284800F0C4F9002832D15B
:102B380000220792089209920A920B920C920D9227
:102B480007A92148FEF712FA50BB042207A91E481C
:102B5800FEF70CFA48BB082207A91B48FEF706FA3D
:102B680040BB0023009301930293039304934FF413
:102B78000052059206936946134800F0C4F9F0B96B
:102B8800114800F0BBFA11B05DF804FB40F21311D4
:102B98000F48FFF7B3FF4FF48D710D48FFF7AEFFF5
:102BA8004FF493710A48FFF7A9FF40F22B11084828
:102BB800FFF7A4FF4FF498710548FFF79FFF4FF404
:102BC8009E710348FFF79AFFF014002000000140AF
:102BD8005042000800B587B01248134B0360002329
:102BE80043608360C3600361029303930493059376
:102BF80002A900F007F958B9502300930023019364
:102C08006946084800F056F938B907B05DF804FB82
:102C18004FF4AA710548FFF771FF40F25B110348B2
:102C2800FFF76CFF6C1400200004004050420008BD
:102C380000B585B01548164B03604FF480334360E8
:102C480000238360036183610362C362114A826265
:102C5800C3600122C26103634261FFF7D1FD60B91D
:102C68000123009301930023029369460748FFF765
:102C7800F1FD30B905B05DF804FBDE210648FFF729
:102C88003DFFE8210448FFF739FF00BFA8140020E2
:102C9800002001400100000F5042000808B50E480E
:102CA8000E4B03604FF48273436000238360C3605C
:102CB800036143614FF480228261C361036243620E
:102CC80083620A23C36200F0DDFA00B908BDFF2160
:102CD8000348FFF713FF00BF14140020003800401A
:102CE8005042000800B595B0002101912B4B1A6C99
:102CF80042F080521A641B6C03F080530193019BCD
:102D08000291274B1A6842F480421A601B6803F448
:102D180080430293029B012308934FF48033099365
:102D280002230E934FF480020F9204221092A822DD
:102D3800119212930723139308A800F061FE20BB99
:102D48000F23039302230493002305934FF4A05306
:102D580006934FF480530793052103A801F088F8E0
:102D6800B8B901F031F90F4BA3FB0030800900F02E
:102D780031FB042000F044FB002211464FF0FF30E5
:102D880000F0E8FA15B05DF804FBAC210648FFF73F
:102D9800B5FEB9210448FFF7B1FE00BF0038024074
:102DA80000700040D34D62105042000808B500F092
:102DB800E7F9FFF797FFFFF715FEFFF7A1FEFFF70B
:102DC80009FFFFF735FFFFF769FFFEF725F9C82070
:102DD80000F002FA0A4C4FF400412046FEF748FA88
:102DE8004FF480412046FEF743FA4FF40051204645
:102DF800FEF73EFA4FF480512046FEF739FAE6E72F
:102E0800000C0240002853D070B588B004460E4626
:102E1800022380F8393000F049F9211D2068FDF7B8
:102E2800BBFFB368032231682068FEF72FF82268D9
:102E3800936923F00C0393612268936971680B43CB
:102E480093612268536843F0800353602268936853
:102E580023F0700393602268936843F04003936003
:102E68002268936823F0070393602268936843F00D
:102E78000403936000250595069570230193079533
:102E880004950395F368029301A92068FEF73CF8BE
:102E98002268536823F0700353602268536843F034
:102EA80050035360012384F83930284608B070BDB8
:102EB8000120704790F83830012B22D030B401221D
:102EC80080F83820022380F839300468636823F0DA
:102ED80070036360046863680D682B43636004686B
:102EE800A36823F08003A3600468A36849680B43C0
:102EF800A36080F83920002380F83830184630BCA9
:102F080070470220704790F83830012B25D00123F4
:102F180080F83830CB6823F440738A68134323F46D
:102F280080634A68134323F400630A68134323F455
:102F380080530A69134323F400534A69134323F463
:102F480080438A69134323F400431343026853649C
:102F5800002380F83830184670470220704708B5BB
:102F6800032000F0E5F9002211466FF00B0000F095
:102F7800F1F9002211466FF00A0000F0EBF9002287
:102F880011466FF0090000F0E5F9002211466FF0D4
:102F9800040000F0DFF9002211466FF0030000F092
:102FA800D9F9002211466FF0010000F0D3F9002290
:102FB80011464FF0FF3000F0CDF908BD0268164BFE
:102FC8009A4200D0704730B587B00024009403F5CA
:102FD8008C335A6C42F480725A645B6C03F48073CD
:102FE8000093009B2223019303250295039401A9D2
:102FF8000A48FEF753F80E2301930295039401A99A
:103008000748FEF74BF801950295039401A9054876
:10301800FEF744F807B030BD002001400008024028
:1030280000000240000402400268124B9A4200D09D
:10303800704700B587B00021009103F500331A6C82
:1030480042F480421A641B6C03F480430093009B93
:103058004FF47043019302230293039103230493D3
:103068000523059301A90448FEF718F807B05DF891
:1030780004FB00BF00380040000402400268094B0E
:103088009A4200D0704782B000230193064B5A6CD5
:1030980042F001025A645B6C03F001030193019B47
:1030A80002B0704700000140003802400268104B2F
:1030B8009A4200D0704700B587B0002300930D4AAC
:1030C800116C41F002011164126C02F002020092CC
:1030D800009A4FF4E0720192022202920393049341
:1030E800059201A90448FDF7D9FF07B05DF804FB74
:1030F80000040040003802400008024002680B4B00
:103108009A4200D0704700B587B04FF47C530193C2
:10311800022302930023039304930123059301A937
:103128000348FDF7BBFF07B05DF804FB0000014052
:103138000010024010B504460E4B18784FF47A730D
:10314800B3FBF0F30C4A1068B0FBF3F000F042F95F
:1031580068B90F2C01D901200AE0002221464FF05E
:10316800FF3000F0F7F8054B1C60002000E001205C
:1031780010BD00BF1400002000000020180000202F
:1031880008B50B4B1A6842F400721A601A6842F4C8
:1031980080621A601A6842F480721A60032000F094
:1031A800C7F80020FFF7C6FFFFF7D9FE002008BDCB
:1031B800003C0240034A1168034B1B780B44136020
:1031C800704700BF2C15002014000020014B186820
:1031D800704700BF2C15002038B50446FFF7F6FFEE
:1031E8000546B4F1FF3F02D0044B1B781C44FFF79F
:1031F800EDFF401BA042FAD338BD00BF14000020E9
:1032080010B513460222C0F8F4218361C3610A464F
:10321800002100F053FA002010BD08B513460A46F5
:10322800002100F04BFA002008BD10B51346032218
:10323800C0F8F421C0F80831C0F80C310A46002162
:1032480000F04AFA002010BD08B513460A460021CE
:1032580000F042FA002008BD08B50423C0F8F43194
:1032680000231A46194600F029FA002008BD08B5BF
:103278000523C0F8F43100231A46194600F02CFA49
:10328800002008BD00283BD010B504460023836207
:1032980090F85130002B2ED0022384F85130226848
:1032A800136823F0400313606368A2681343E2685D
:1032B80013432269134362691343A26902F400723B
:1032C8001343E2691343226A1343A16A22680B433A
:1032D8001360638B03F00403616A22680B43536035
:1032E8002268D36923F40063D36100206065012359
:1032F80084F8513010BD80F85030FFF795FECBE7C9
:10330800012070477047FEE7FEE7FEE7FEE77047DB
:103318007047704708B5FFF74DFF00F082F808BD09
:1033280008B50248FEF7C4FD08BD00BF30150020EF
:10333800074AD36823F4E0631B041B0C000200F463
:10334800E060184340F0BF6040F40030D060704740
:1033580000ED00E030B4174BDB68C3F30223C3F180
:103368000704042C28BF04241D1D062D18D9033B6F
:103378004FF0FF3505FA04F421EA0401994005FAF3
:1033880003F322EA0303194300280BDB0901C9B23E
:1033980000F1604000F5614080F8001330BC7047D0
:1033A8000023E5E700F00F000901C9B2024B1954E8
:1033B800F4E700BF00ED00E014ED00E000F01F02AC
:1033C800400901239340024A42F82030704700BF69
:1033D80000E100E00138B0F1807F0AD2064B586066
:1033E800064AF02182F823100020986007221A600C
:1033F80070470120704700BF10E000E000ED00E0DA
:10340800042805D0054A136823F0040313607047A5
:10341800024A136843F004031360704710E000E0A9
:10342800704708B5FFF7FCFF08BD00000368B3F15B
:10343800A04F00D0704710B586B04FF4C053019329
:103448000223029300240394032304930A2305937D
:1034580001A90E48FDF722FE0D4B5A6B42F080027F
:103468005A6300945A6C42F480425A645B6C03F4C9
:1034780080430093009B224621464320FFF76AFFC2
:103488004320FFF79BFF06B010BD00BF00000240BD
:103498000038024008B500F56F71D0F8EC03FDF76D
:1034A800EAFA08BD08B5C1EBC10293000344D3F89A
:1034B8000422D0F8EC03FDF70BFB08BD08B5C1EBFF
:1034C800C102930003445A6CD0F8EC03FDF735FBB6
:1034D80008BD08B5D0F8EC03FDF7B8FB08BD10B57A
:1034E8000446C3684BB10121D4F8EC03FDF79CFBFB
:1034F800D4F8EC03FDF779FB10BD0021F4E70000D8
:1035080010B50446D0F8EC03FDF791FB2268D2F819
:10351800003E43F00103C2F8003E236A23B1034A88
:10352800136943F00603136110BD00BF00ED00E00E
:1035380008B5D0F8EC03FDF783FB08BD08B5D0F853
:10354800EC03FDF793FB08BD08B5D0F8EC03FDF7D5
:103558008BFB08BD08B5D0F8EC03FDF789FB08BD67
:1035680008B5D0F8EC03FDF785FB08BD03780BB16F
:103578000020704710B503461748C0F8EC33C3F86D
:1035880020024FF0A0430360042343600222C2607C
:103598000023036143618261C36103624362C362C2
:1035A8000363FEF7FFFB80B90B4C80212046FCF734
:1035B800ABFF402200212046FCF782FF8022012138
:1035C8002046FCF77DFF002010BD4FF4A57103488D
:1035D800FFF794FAE8E700BF301500205C420008C6
:1035E80008B5D0F82002FEF74DFC18B1022803D028
:1035F800022008BD0020FCE70120FAE710B51C46B0
:1036080013462246D0F82002FEF746FF18B10228DA
:1036180003D0022010BD0020FCE70120FAE708B51E
:10362800D0F82002FEF76CFF18B1022803D0022060
:1036380008BD0020FCE70120FAE708B5D0F8200211
:10364800FEF7E8FF18B1022803D0022008BD0020C9
:10365800FCE70120FAE708B5D0F82002FFF70DF8DB
:1036680018B1022803D0022008BD0020FCE7012081
:10367800FAE7D0F8203211F0800F08D101F07F016D
:10368800C1EBC1018A00134493F8FA01704701F0B5
:103698007F01C1EBC1018A00134493F83A007047D7
:1036A80008B5D0F82002FEF7E5FE18B1022803D0CD
:1036B800022008BD0020FCE70120FAE708B5D0F891
:1036C8002002FEF77EFF18B1022803D0022008BDB1
:1036D8000020FCE70120FAE708B5D0F82002FEF741
:1036E8003AFF18B1022803D0022008BD0020FCE7E9
:1036F8000120FAE708B5D0F82002FEF759FF08BD07
:10370800D0F818321BB10020C3F814027047022009
:10371800704710B5D0F81842D0F81C325BB194F855
:103728000002FF2807D09B6894F801222146984799
:10373800FF2384F80032002010BD000043230380DB
:103748000048704754000020432303800048704716
:10375800980000204323038000487047E8000020B9
:103768000A23038000487047DC00002038B504466F
:10377800D0F81852FFF7BEFFC5F80C02D4F818327B
:103788004BB1D4F81C32DB6805F50371D5F8040297
:103798009847002038BD0220FCE7000070B50546B8
:1037A8000C46D0F818620B7813F0600225D0202A56
:1037B80007D1CA883AB9D0F81C329B6800224878E9
:1037C8009847002070BD13F0800F0BD0D0F81C3242
:1037D8009B68314660789847E28831462846FFF76B
:1037E8000FFDEEE74B7886F80032CB8886F8013279
:1037F800CA883146FFF719FDE3E74B780A2BE0D179
:1038080001220249FFF7FCFCDBE700BFE1010020D1
:1038180010B504468121FFF702FF01212046FFF77A
:10382800FEFE82212046FFF7FAFED4F8183253B183
:10383800D4F81C325B689847D4F8180200F020FCD2
:103848000023C4F81832002010BD38B50446037CA4
:1038580073BB4FF4007302228121FFF7CFFE4FF4B0
:103868000073022201212046FFF7C8FE0823032225
:1038780082212046FFF7C2FE4FF4077000F0F8FBE4
:103888000546C4F8180248B3D4F81C321B68984798
:103898000023C5F81432C5F81832237CA3B140239D
:1038A800D5F8042201212046FFF716FF002038BD75
:1038B800402302228121FFF7A1FE40230222012199
:1038C8002046FFF79BFED1E74FF40073D5F804229A
:1038D80001212046FFF700FF0020E8E70120E6E786
:1038E80019B1C0F81C120020704702207047D0F8A8
:1038F8001832C3F80812C3F8102200207047D0F815
:103908001832C3F8041200207047D0F818229AB170
:1039180008B5037C3BB14023D2F804220121FFF70C
:10392800DBFE002008BD4FF40073D2F80422012109
:10393800FFF7D2FE0020F5E70220704712230B8024
:10394800004870474801002004230B800048704756
:103958005C01002008B50A4628B105490548FDF76D
:1039680036F8034808BD02490248FDF730F8F8E781
:10397800201900209C42000810B5044C0A46214634
:103988000348FDF724F8204610BD00BF2019002089
:103998008842000808B50A4628B105490548FDF7D8
:1039A80016F8034808BD02490248FDF710F8F8E781
:1039B80020190020B442000808B50A4628B1054974
:1039C8000548FDF704F8034808BD02490248FCF71A
:1039D800FEFFF8E7201900206C42000808B50A46E7
:1039E80028B105490548FCF7F2FF034808BD02491C
:1039F8000248FCF7ECFFF8E720190020784200089D
:103A0800002800F0BB8170B582B00446036813F04B
:103A1800010F3BD0A74B9B6803F00C03042B2CD061
:103A2800A44B9B6803F00C03082B21D06368B3F503
:103A3800803F4FD0B3F5A02F52D09E4B1A6822F486
:103A480080321A601A6822F480221A606368002B98
:103A580050D0FFF7BBFB0546964B1B6813F4003F9D
:103A680014D1FFF7B3FB401B6428F5D903208AE182
:103A7800904B5B6813F4800FD8D08E4B1B6813F4FF
:103A8800003F03D06368002B00F07A81236813F0AD
:103A9800020F55D0874B9B6813F00C0F3ED0854B17
:103AA8009B6803F00C03082B33D0E368002B68D025
:103AB800814B01221A60FFF789FB05467D4B1B6885
:103AC80013F0020F54D1FFF781FB401B0228F5D9F0
:103AD800032058E1774A136843F480331360B5E74D
:103AE800744B1A6842F480221A601A6842F48032D1
:103AF8001A60ABE7FFF76AFB05466E4B1B6813F4C9
:103B0800003FC3D0FFF762FB401B6428F5D90320B0
:103B180039E1684B5B6813F4800FC6D1654B1B68AD
:103B280013F0020F04D0E368012B01D001202AE131
:103B3800604A136823F0F803216943EAC10313605C
:103B4800236813F0080F40D0636963B35B4B01220D
:103B58001A60FFF73BFB0546564B5B6F13F0020FED
:103B680033D1FFF733FB401B0228F5D903200AE1C4
:103B7800504A136823F0F803216943EAC10313602C
:103B8800DEE74D4B00221A60FFF720FB0546494B44
:103B98001B6813F0020FD3D0FFF718FB401B022855
:103BA800F5D90320EFE0454B00221A60FFF70EFB22
:103BB8000546404B5B6F13F0020F06D0FFF706FB7C
:103BC800401B0228F5D90320DDE0236813F0040F19
:103BD80079D0384B1B6C13F0805F33D100230193ED
:103BE800344B1A6C42F080521A641B6C03F08053F9
:103BF8000193019B0125324B1B6813F4807F23D06E
:103C0800A368012B34D0052B38D02A4B1A6F22F029
:103C180001021A671A6F22F004021A67A368002BC0
:103C280036D0FFF7D3FA0646224B1B6F13F0020F6C
:103C380048D1FFF7CBFA801B41F288339842F3D979
:103C48000320A0E00025D6E71D4A136843F48073DB
:103C58001360FFF7BBFA0646194B1B6813F4807F05
:103C6800CED1FFF7B3FA801B0228F5D903208AE0EA
:103C7800104A136F43F001031367CFE70D4B1A6F18
:103C880042F004021A671A6F42F001021A67C5E788
:103C9800FFF79CFA0646074B1B6F13F0020F11D073
:103CA800FFF794FA801B41F288339842F3D9032036
:103CB80069E000BF0038024000004742800E4742DA
:103CC80000700040E5B9A369002B5BD0304A9268C8
:103CD80002F00C02082A58D0022B17D02D4B0022D4
:103CE8001A60FFF773FA0446294B1B6813F0007F2C
:103CF80042D0FFF76BFA001B0228F5D9032042E0F7
:103D0800234A136C23F080531364DCE7214B002211
:103D18001A60FFF75BFA05461D4B1B6813F0007F1E
:103D280006D0FFF753FA401B0228F5D903202AE0F2
:103D3800E369226A1343626A43EA8213A26A520859
:103D4800013A43EA0243E26A43EA0263104A5360D3
:103D5800104B01221A60FFF739FA04460C4B1B6816
:103D680013F0007F06D1FFF731FA001B0228F5D9BE
:103D7800032008E0002006E0002004E0012070474E
:103D8800012000E0002002B070BD0120FBE700BF69
:103D98000038024060004742324B9B6803F00C0336
:103DA800042B5CD0082B01D02F4870472DE9F04B2D
:103DB8002C4B5A6802F03F025B6813F4800F2BD03B
:103DC800284B5B68C3F388131E4600275C01002557
:103DD800E41A65EB0705A90141EA9461A001001BFB
:103DE80061EB0501CB0043EA5073C400A01943EB13
:103DF80007014B0243EAD0534402204619460023E8
:103E0800FCF7DEF9174B5B68C3F3014301335B0032
:103E1800B0FBF3F0BDE8F08B124B5B68C3F388137B
:103E28001E4600275C010025E41A65EB0705A90179
:103E380041EA9461A001001B61EB0501CB0043EA54
:103E48005073C400A01943EB07018B0243EA905357
:103E58008402204619460023FCF7B2F9D2E703484A
:103E6800704700BF003802400024F40000127A00B6
:103E7800002800F09D8070B504464F4B1B6803F086
:103E88000F038B4209D2CBB24B4A1370136803F06D
:103E98000F038B4201D0012070BD236813F0020F7D
:103EA80017D013F0040F04D0444A936843F4E05346
:103EB8009360236813F0080F04D0404A936843F4D2
:103EC800604393603D4A936823F0F003A06803437E
:103ED80093600D46236813F0010F32D06368012BFD
:103EE80021D09A1E012A25D9344A126812F0020FED
:103EF80060D032498A6822F0030213438B60FFF7CF
:103F080065F906462D4B9B6803F00C036268B3EB1A
:103F1800820F16D0FFF75AF9801B41F28833984276
:103F2800F0D90320B8E7254A126812F4003FE0D11F
:103F38000120B1E7214A126812F0007FD9D101208F
:103F4800AAE71D4B1B6803F00F03AB4209D9EAB27D
:103F5800194B1A701B6803F00F03AB4201D0012004
:103F68009AE7236813F0040F06D0144A936823F4E1
:103F7800E053E1680B439360236813F0080F07D000
:103F88000E4A936823F46043216943EAC1039360AE
:103F9800FFF702FF094B9B68C3F30313084AD35C7E
:103FA800D840084B18600020FFF7C4F8002073E7DA
:103FB8000120704701206FE7003C024000380240B2
:103FC8004042000800000020014B1868704700BFFD
:103FD80000000020DFF834D0002103E00C4B5B58D0
:103FE800435004310B480C4B42189A42F6D30B4A03
:103FF80002E0002342F8043B094B9A42F9D3FCF74C
:10400800E5FF00F011F8FEF7D1FE7047000002202E
:10401800D442000800000020C4010020C401002090
:10402800241B0020FEE7000070B50D4E0D4CA41BAC
:10403800A4100025A54209D10B4E0C4C00F0F0F855
:10404800A41BA4100025A54205D170BD56F8253043
:1040580098470135EEE756F8253098470135F2E7DD
:10406800CC420008CC420008CC420008D0420008EC
:10407800024B0146186800F059B800BF60010020E3
:10408800024B0146186800F003B800BF6001002029
:1040980038B50546002945D051F8043C0C1F002BC3
:1040A800B8BFE41800F0ACF81F4A1368104633B9DB
:1040B800636014602846BDE8384000F0A2B8A34207
:1040C8000CD921686218934204BF1A685B68636060
:1040D80004BF521822600460ECE713465A680AB11C
:1040E800A242FAD919685818A0420BD12068014495
:1040F800581882421960DDD1106852685A6001442C
:104108001960D7E702D90C232B60D3E72068211860
:104118008A4204BF11685268626004BF09182160AE
:104128005C60C7E738BD00BFE401002070B5CD1C56
:1041380025F0030508350C2D38BF0C25002D064643
:1041480001DBA94203D90C233360002070BD00F0C5
:1041580057F8214A1468214691B9204C23681BB9A5
:10416800304600F03DF820602946304600F038F827
:10417800431C24D10C233360304600F042F8E4E7B6
:104188000B685B1B18D40B2B0FD90B60CD50CC18C8
:10419800304600F036F804F10B00231D20F007002C
:1041A800C31AD3D05A42E250D0E78C424B6816BFAC
:1041B800636013600C46EBE70C464968CCE7C41C07
:1041C80024F00304A04205D0211A304600F008F874
:1041D8000130CFD02560DBE7E4010020E8010020B2
:1041E80038B5064C002305460846236000F00AF857
:1041F800431C02D1236803B12B6038BD201B00206B
:1042080070477047044A05491368002B08BF0B46DE
:104218001844106018467047EC010020281B002045
:10422800F8B500BFF8BC08BC9E467047F8B500BF9B
:08423800F8BC08BC9E4670476B
:104240000000000000000000010203040607080946
:104250005372632F6D61696E2E6300005372632F7A
:10426000757362645F636F6E662E63004344432020
:10427000436F6E666967000043444320496E74656E
:10428000726661636500000053544D6963726F6527
:104290006C656374726F6E696373000053544D33C1
:1042A00032205669727475616C20436F6D506F7265
:1042B0007400000030303030303030303030314138
:0442C00000000000FA
:0842C40034BFFF7F0100000080
:0442CC00AD01000838
:0442D0008901000858
:1042D4000024F4007D100008591000085D10000847
:1042E40061100008010000001000000053380008AD
:1042F40019380008A5370008000000001B37000823
:1043040009370008753700080000000000000000AD
:104314000000000051370008453700085D370008E9
:104324006937000809024300020100C03209040091
:10433400000102020100052400100105240100010E
:104344000424020205240600010705820308001064
:1043540009040100020A00000007050102400000F0
:10436400070581024000000009024300020100C069
:1043740032090400000102020100052400100105B5
:104384002401000104240202052406000107058219
:104394000308001009040100020A000000070501D7
:1043A4000200020007058102000200000A06000262
:1043B400000000400100000009074300020104C09E
:1043C4003209040000010202010005240010010565
:1043D40024010001042402020524060001070582C9
:1043E400030800FF09040100020A00000007050198
:1043F4000240000007058102400000004539000822
:1044040051390008813900085D3900089D390008D8
:10441400C1390008E5390008120100020202004017
:10442400830440570002010203010000040309044D
:1044340064010020000000000000000000000000F3
:104444000000000000000000000000000000000068
:104454000000000000000000000000000000000058
:104464000000000000000000000000000000000048
:104474000000000000000000000000000000000038
:104484000000000000000000000000000000000028
:044494000000000024
:0400000508003FDDD3
:00000001FF
